{
  "contractName": "cloud",
  "abi": [
    {
      "constant": true,
      "inputs": [],
      "name": "getMyFiles",
      "outputs": [
        {
          "components": [
            {
              "internalType": "string",
              "name": "hash",
              "type": "string"
            },
            {
              "internalType": "string",
              "name": "mimetype",
              "type": "string"
            },
            {
              "internalType": "string",
              "name": "name",
              "type": "string"
            }
          ],
          "internalType": "struct cloud.file[]",
          "name": "",
          "type": "tuple[]"
        }
      ],
      "payable": false,
      "stateMutability": "view",
      "type": "function"
    },
    {
      "constant": false,
      "inputs": [
        {
          "internalType": "string",
          "name": "_hash",
          "type": "string"
        },
        {
          "internalType": "string",
          "name": "_mimetype",
          "type": "string"
        },
        {
          "internalType": "string",
          "name": "_name",
          "type": "string"
        }
      ],
      "name": "addMyfile",
      "outputs": [],
      "payable": false,
      "stateMutability": "nonpayable",
      "type": "function"
    },
    {
      "constant": false,
      "inputs": [
        {
          "internalType": "address",
          "name": "_add",
          "type": "address"
        },
        {
          "internalType": "string",
          "name": "_hash",
          "type": "string"
        },
        {
          "internalType": "string",
          "name": "_mimetype",
          "type": "string"
        },
        {
          "internalType": "string",
          "name": "_name",
          "type": "string"
        }
      ],
      "name": "shareMyfile",
      "outputs": [],
      "payable": false,
      "stateMutability": "nonpayable",
      "type": "function"
    }
  ],
  "bytecode": "0x608060405234801561001057600080fd5b50610d35806100206000396000f3fe608060405234801561001057600080fd5b50600436106100415760003560e01c80635d1abd151461004657806390a4b0df14610062578063ba39749a14610080575b600080fd5b610060600480360361005b9190810190610817565b61009c565b005b61006a610330565b6040516100779190610b66565b60405180910390f35b61009a600480360361009591908101906108c2565b6105b2565b005b6100a46106a0565b838160000181905250600080905060008090505b600260003373ffffffffffffffffffffffffffffffffffffffff1673ffffffffffffffffffffffffffffffffffffffff168152602001908152602001600020805490508110156101c55782604001516040516020016101179190610b38565b60405160208183030381529060405280519060200120600260003373ffffffffffffffffffffffffffffffffffffffff1673ffffffffffffffffffffffffffffffffffffffff168152602001908152602001600020828154811061017757fe5b90600052602060002090600302016002016040516020016101989190610b4f565b6040516020818303038152906040528051906020012014156101b8578091505b80806001019150506100b8565b50600260003373ffffffffffffffffffffffffffffffffffffffff1673ffffffffffffffffffffffffffffffffffffffff168152602001908152602001600020818154811061021057fe5b90600052602060002090600302016000808201600061022f91906106c1565b60018201600061023f91906106c1565b60028201600061024f91906106c1565b5050838260200181905250828260400181905250600260008773ffffffffffffffffffffffffffffffffffffffff1673ffffffffffffffffffffffffffffffffffffffff168152602001908152602001600020829080600181540180825580915050906001820390600052602060002090600302016000909192909190915060008201518160000190805190602001906102ea929190610709565b506020820151816001019080519060200190610307929190610709565b506040820151816002019080519060200190610324929190610709565b50505050505050505050565b6060600260003373ffffffffffffffffffffffffffffffffffffffff1673ffffffffffffffffffffffffffffffffffffffff168152602001908152602001600020805480602002602001604051908101604052809291908181526020016000905b828210156105a95783829060005260206000209060030201604051806060016040529081600082018054600181600116156101000203166002900480601f01602080910402602001604051908101604052809291908181526020018280546001816001161561010002031660029004801561044d5780601f106104225761010080835404028352916020019161044d565b820191906000526020600020905b81548152906001019060200180831161043057829003601f168201915b50505050508152602001600182018054600181600116156101000203166002900480601f0160208091040260200160405190810160405280929190818152602001828054600181600116156101000203166002900480156104ef5780601f106104c4576101008083540402835291602001916104ef565b820191906000526020600020905b8154815290600101906020018083116104d257829003601f168201915b50505050508152602001600282018054600181600116156101000203166002900480601f0160208091040260200160405190810160405280929190818152602001828054600181600116156101000203166002900480156105915780601f1061056657610100808354040283529160200191610591565b820191906000526020600020905b81548152906001019060200180831161057457829003601f168201915b50505050508152505081526020019060010190610391565b50505050905090565b6105ba6106a0565b838160000181905250828160200181905250818160400181905250600260003373ffffffffffffffffffffffffffffffffffffffff1673ffffffffffffffffffffffffffffffffffffffff1681526020019081526020016000208190806001815401808255809150509060018203906000526020600020906003020160009091929091909150600082015181600001908051906020019061065c929190610709565b506020820151816001019080519060200190610679929190610709565b506040820151816002019080519060200190610696929190610709565b5050505050505050565b60405180606001604052806060815260200160608152602001606081525090565b50805460018160011615610100020316600290046000825580601f106106e75750610706565b601f0160209004906000526020600020908101906107059190610789565b5b50565b828054600181600116156101000203166002900490600052602060002090601f016020900481019282601f1061074a57805160ff1916838001178555610778565b82800160010185558215610778579182015b8281111561077757825182559160200191906001019061075c565b5b5090506107859190610789565b5090565b6107ab91905b808211156107a757600081600090555060010161078f565b5090565b90565b6000813590506107bd81610cdb565b92915050565b600082601f8301126107d457600080fd5b81356107e76107e282610bb5565b610b88565b9150808252602083016020830185838301111561080357600080fd5b61080e838284610c88565b50505092915050565b6000806000806080858703121561082d57600080fd5b600061083b878288016107ae565b945050602085013567ffffffffffffffff81111561085857600080fd5b610864878288016107c3565b935050604085013567ffffffffffffffff81111561088157600080fd5b61088d878288016107c3565b925050606085013567ffffffffffffffff8111156108aa57600080fd5b6108b6878288016107c3565b91505092959194509250565b6000806000606084860312156108d757600080fd5b600084013567ffffffffffffffff8111156108f157600080fd5b6108fd868287016107c3565b935050602084013567ffffffffffffffff81111561091a57600080fd5b610926868287016107c3565b925050604084013567ffffffffffffffff81111561094357600080fd5b61094f868287016107c3565b9150509250925092565b60006109658383610ada565b905092915050565b600061097882610c06565b6109828185610c29565b93508360208202850161099485610be1565b8060005b858110156109d057848403895281516109b18582610959565b94506109bc83610c1c565b925060208a01995050600181019050610998565b50829750879550505050505092915050565b60006109ed82610c11565b6109f78185610c3a565b9350610a07818560208601610c97565b610a1081610cca565b840191505092915050565b6000610a2682610c11565b610a308185610c4b565b9350610a40818560208601610c97565b80840191505092915050565b600081546001811660008114610a695760018114610a8e57610ad2565b607f6002830416610a7a8187610c4b565b955060ff1983168652808601935050610ad2565b60028204610a9c8187610c4b565b9550610aa785610bf1565b60005b82811015610ac957815481890152600182019150602081019050610aaa565b82880195505050505b505092915050565b60006060830160008301518482036000860152610af782826109e2565b91505060208301518482036020860152610b1182826109e2565b91505060408301518482036040860152610b2b82826109e2565b9150508091505092915050565b6000610b448284610a1b565b915081905092915050565b6000610b5b8284610a4c565b915081905092915050565b60006020820190508181036000830152610b80818461096d565b905092915050565b6000604051905081810181811067ffffffffffffffff82111715610bab57600080fd5b8060405250919050565b600067ffffffffffffffff821115610bcc57600080fd5b601f19601f8301169050602081019050919050565b6000819050602082019050919050565b60008190508160005260206000209050919050565b600081519050919050565b600081519050919050565b6000602082019050919050565b600082825260208201905092915050565b600082825260208201905092915050565b600081905092915050565b6000610c6182610c68565b9050919050565b600073ffffffffffffffffffffffffffffffffffffffff82169050919050565b82818337600083830152505050565b60005b83811015610cb5578082015181840152602081019050610c9a565b83811115610cc4576000848401525b50505050565b6000601f19601f8301169050919050565b610ce481610c56565b8114610cef57600080fd5b5056fea365627a7a723158201f284e90d0bf98fe33c4c957d2bb54169cb8758210fa84aabe4fdc1a27ed1fab6c6578706572696d656e74616cf564736f6c63430005100040",
  "source": "pragma solidity ^0.5.0;\r\npragma experimental ABIEncoderV2;\r\n\r\n\r\n/**\r\n* @title cloud\r\n* @author Abhishek Vispute\r\n*/\r\ncontract cloud {\r\n \r\n    address owner;\r\n  \r\n    modifier onlyowner\r\n    {\r\n         require(msg.sender==owner,\"You are not allowed\");\r\n         _;\r\n    }\r\n   \r\n   bytes32 d;\r\n   \r\n   struct file {\r\n       string hash;\r\n       string mimetype;\r\n       string name;\r\n   }\r\n\r\n  mapping(address => file[]) files_per_user;\r\n  \r\n  \r\n  function getMyFiles() public view returns (file [] memory)\r\n   {\r\n       return files_per_user[msg.sender];\r\n   }\r\n   \r\n   function addMyfile(string memory _hash,string memory _mimetype, string memory _name) public\r\n   {\r\n        file memory t;\r\n        t.hash = _hash;\r\n        t.mimetype = _mimetype;\r\n        t.name = _name;\r\n        files_per_user[msg.sender].push(t);\r\n     \r\n   }\r\n   \r\n   function shareMyfile(address _add, string memory _hash, string memory _mimetype, string memory _name) public\r\n   { \r\n        file memory t;\r\n        t.hash = _hash;\r\n        uint256 index = 0;\r\n        for(uint256 i = 0; i < files_per_user[msg.sender].length; i++){\r\n          if(keccak256(abi.encodePacked(files_per_user[msg.sender][i].name)) ==  keccak256(abi.encodePacked(t.name))){\r\n               index = i;\r\n          }\r\n        }\r\n        delete(files_per_user[msg.sender][index]);\r\n        t.mimetype = _mimetype;\r\n        t.name = _name;\r\n        files_per_user[_add].push(t); \r\n   }\r\n}",
  "sourcePath": "C:\\JushuaValencia2022\\decentralized-Cloud\\contracts\\cloud.sol",
  "compiler": {
    "name": "solc",
    "version": "0.5.16+commit.9c3226ce.Emscripten.clang"
  },
  "schemaVersion": "3.4.7",
  "updatedAt": "2022-06-06T18:32:28.747Z",
  "networkType": "ethereum",
  "devdoc": {
    "author": "Abhishek Vispute",
    "methods": {},
    "title": "cloud"
  },
  "userdoc": {
    "methods": {}
  }
}